:020000040000FA
:0400000081311D2904
:100008007E1480310B1D09280A28E02807302000BB
:100018008E000330F0000030F1004F08A400A50165
:100028002408F2002508F30082318E2280317008FE
:10003800013E2000A6002608CF006430F7000030FB
:10004800F8003E08FA003D08F90082312E2280317E
:1000580078082000B6007708B5000A30F7000030AD
:10006800F8003E08F3003D08F2006430F00000306C
:10007800F10082318E2280317108FA007008F9008F
:1000880082312E22803178082000B8007708B70026
:100098003E08F3003D08F2006430F0000030F10043
:1000A80082318E22803171082000A8007008A700D4
:1000B8000A30F0000030F1002808F3002708F200A9
:1000C80082318E22803171082000BA007008B90090
:1000D800A901AA0120004F03031D732874288E2844
:1000E80006308E002A08803AA40080302402031DBE
:1000F8007F28203029020318822883288B28200093
:100108003908453E8600870101088C008E28FF309B
:1001180020008C0002304F06031D93289428AE2837
:1001280005308E002A08803AA40080302402031D7E
:100138009F28203029020318A228A328AB282000D2
:100148003708453E8600870101088C00AE28FF303D
:1001580020008C0003304F06031DB328B428CE2896
:1001680003308E002A08803AA40080302402031D40
:10017800BF28203029020318C228C328CB28200012
:100188003508453E8600870101088C00CE28FF30DF
:1001980020008C000130A9070030AA3D2A08803AC7
:1001A800A40081302402031DDB2800302902031C2F
:1001B800DE28DF286E280B112000911DE428E52891
:1001C8001B2924001419E928EA280629941AED287D
:1001D800EE28F62811082000A4002408C400BF0156
:1001E800C001032911082000A4003F08413E8600F1
:1001F8008701240881000130BF070030C03D24007A
:1002080015161929141C09290A291329110820006F
:10021800A4002408C4004308240091000329161BE5
:1002280016291729192991010329200091117E10F7
:10023800090081311F290130840083308500453051
:100248008600003087000B3083310C238131FC019C
:10025800353084000030850010308331122381311D
:100268007E102000813138297030210099009513C3
:100278008030240094002630950016141030920027
:10028800FE309300200091112100911523008C016C
:1002980021008C0123008D01FF3021008D00FF30EB
:1002A80024008D00183021008E001508F839043814
:1002B8009500951195121516200095010B118B16B6
:1002C8008B1720000D0A03196A296B2965298B12DF
:1002D8000D186F29702974290130B9070030BA3D0B
:1002E8008D18772978297C29FF30B907FF30BA3D66
:1002F8000D197F29802984290130B7070030B83DBE
:100308008D19872988298C29FF30B707FF30B83D18
:100318000D1A8F29902994290130B5070030B63D70
:100328008D1A972998299C29FF30B507FF30B63DCB
:100338000430353E860087014131811FA429A52953
:10034800A9290930B9000030BA003A08803AB1004A
:1003580080303102031DB2290A303902031CB52945
:10036800B629B9292000B901BA010230353E860004
:1003780087014131811FC129C229C72909302000BD
:10038800B7000030B80020003808803AB10080304B
:100398003102031DD1290A303702031CD429D5297B
:1003A800D8292000B701B8012000B61FDC29DD29B3
:1003B800E1290930B5000030B6003608803AB100AE
:1003C80080303102031DEA290A303502031CED2969
:1003D800EE29F1292000B501B6010430353E86002A
:1003E800870120003608AC003508AB006430AD004A
:1003F8000030AE008231E122813120002B08B100AB
:100408002C08B2003808AC003708AB000A30AD0041
:100418000030AE008231E122813120002B08310703
:10042800B3002C08323DB400403F3307BD00413FC4
:10043800343DBE008B1603302000B2000830B100F6
:100448007730890B252AB10B252AB20B252A652975
:1004580081311D292000A101F81F332A342A3B2AA3
:10046800F709F809F70A0319F80AA101A10AFA1FFE
:100478003E2A3F2A482AF909FA09F90A0319FA0A09
:100488000130FB007B08A106A201A30177087804CC
:1004980003194F2A502A7F2AA001A00A5C2A01309A
:1004A800F735F80D890B542A0130FB007B08A007AB
:1004B800F81F5F2A602A532A0130A235A30D890B41
:1004C800612A78087A02031D6B2A77087902031CCF
:1004D8006E2A6F2A742A7708F9027808FA3B2214E0
:1004E8000130F836F70C890B752A0130A002031D7C
:1004F8007E2A7F2A602A21080319832A842A892AC6
:10050800A209A309A20A0319A30A2308F8002208CA
:10051800F7000800F601F31F922A932A9A2AF20993
:10052800F309F20A0319F30AF601F60AF11F9D2AE4
:100538009E2AA32AF009F109F00A0319F10A7008A2
:1005480071040319A82AA92AD22AF501F50AB52A9D
:100558000130F035F10D890BAD2A0130F400740833
:10056800F507F11FB82AB92AAC2A71087302031DCE
:10057800BF2A70087202031CC22AC32AC72A70083D
:10058800F2027108F33B0130F136F00C890BC82AEE
:100598000130F502031DD12AD22AB92A7608031997
:1005A800D62AD72ADC2AF209F309F20A0319F30A30
:1005B8007308F1007208F00008002000AF01B001D4
:1005C8002B1CE72AE82AEC2A2D08AF072E08B03D95
:1005D8000130AD35AE0D890BED2A0130AC36AB0CD0
:1005E800890BF22A2B082C04031DFB2AFC2AE42A77
:1005F8003008AC002F08AB000800403479342434AC
:10060800303419341234023478340034103401345C
:10061800FE0012001E00FE0B0D2B0034640080014A
:080628000131890B132B003492
:020000040001F9
:04000E00E43FFF3F8D
:00000001FF
