:020000040000FA
:0400000081319C2985
:100008007E1480312000911D0A280B28D92824004D
:1000180014190F2810289328941A132814281B2819
:1000280011082000C2004208B500B6019028110846
:100038002000C2003608293E860087014208810058
:100048000130C2004208B6072A08C200C3014208AC
:10005800C300C20129084207B00043080318430A35
:10006800B1002B08C2000330C236890B3828420879
:100078000139C3004308A6002B08C2000230C2366B
:10008800890B432842080139C3004308A7002B36CF
:100098000139C2004208A8002B080139C2004208F1
:1000A800B2006430F6000030F7003108F90030087B
:1000B800F8008231DF22803177082000A10076081D
:1000C800A0000A30F6000030F7003108F3003008CD
:1000D800F2006430F0000030F10083311B238031DE
:1000E8007108F9007008F8008231DF228031770842
:1000F8002000A3007608A2000A30F0000030F100CA
:100108003108F3003008F20083311B238031710875
:100118002000A5007008A40024001516D728043074
:10012800203E8600870120002108F1002008F00009
:100138006430F2000030F30083314F2380317008BF
:100148002000C2007108C3002308F1002208F00053
:100158000A30F2000030F30083314F2380317008F9
:1001680020004207C4007108433DC500403F4407D2
:10017800AE00413F453DAF002400141CC428C528EB
:10018800CE2811082000C2004208B5002E0824001D
:1001980091009028161BD128D228D72820002F0894
:1001A800240091009028200091110B1DDC28DD28E7
:1001B8009A2907308E000B302000C2006230890B6C
:1001C800E328C20BE32800000330F0000030F10000
:1001D80020004108C200C3014208F2004308F300AE
:1001E80082318C2280317008013E2000C40044080E
:1001F800C1004103031D01290229262928080319E2
:100208000629072916293308373E86008701320850
:10021800C2000630C235FF3E031D0E2942350107D4
:100228008C0024292408373E860087013208C20042
:100238000630C235FF3E031D1D29423501078C00DB
:1002480006308E0002304106031D2B292C29502927
:10025800270803193029312940293308373E8600F9
:1002680087013208C2000630C235FF3E031D382917
:10027800423501078C004E292208373E8600870147
:100288003208C2000630C235FF3E031D47294235F9
:1002980001078C0005308E0003304106031D5529E7
:1002A80056297A29260803195A295B296A29330805
:1002B800373E860087013208C2000630C235FF3E4D
:1002C800031D6229423501078C0078292008373E32
:1002D800860087013208C2000630C235FF3E031D82
:1002E8007129423501078C0003308E000130AC07BC
:1002F8000030AD3D2D08803AC20080304202031D17
:10030800872965302C02031C8A298B2999290130F9
:100318002000C2004208B3070A303302031C9529A3
:1003280096299729B301AC01AD010B117E10090084
:1003380081319E296E3084008330850037308600F5
:10034800003087000B3083317923813120308400DD
:1003580000308500173083317F2381317E102000E3
:100368008131B629703021009900951323008C0142
:1003780021008C01C03023008D003F3021008D000A
:100388003F3024008D00783021008E00803024001A
:100398009400263095001614003020008E1A023082
:1003A8000E1B013EC6004608C8004835FE39240029
:1003B8009200FE30930021001508F83905389500A1
:1003C800951195121516200095010B118B16911198
:1003D800210091158B173F3020000D060319F529D0
:1003E800F629EF298B120D18FA29FB29FF2901306C
:1003F800A4070030A53D8D18022A032A072AFF30DA
:10040800A407FF30A53D0D190A2A0B2A0F2A01302F
:10041800A2070030A33D8D19122A132A172AFF308C
:10042800A207FF30A33D0D1A1A2A1B2A1F2A0130E2
:10043800A0070030A13D8D1A222A232A272AFF303F
:10044800A007FF30A13D0430203E860087014131DE
:10045800811F2F2A302A342A0930A4000030A50031
:100468002508803AC60080304602031D3D2A0A301E
:100478002402031C402A412A442A2000A401A50181
:100488000230203E860087014131811F4C2A4D2AC7
:10049800522A09302000A2000030A30020002308BF
:1004A800803AC60080304602031D5C2A0A302202C8
:1004B800031C5F2A602A632A2000A201A3012000EE
:1004C800A11F672A682A6C2A0930A0000030A10001
:1004D8002108803AC60080304602031D752A0A307A
:1004E8002002031C782A792A7C2A2000A001A10175
:1004F8008B1605302000C7000F30C600F130890B7D
:10050800832AC60B832AC70B832AEF2981319C29AA
:10051800F601F31F902A912A982AF209F309F20AA0
:100528000319F30AF601F60AF11F9B2A9C2AA12A4D
:10053800F009F109F00A0319F10A700871040319A6
:10054800A62AA72AD02AF501F50AB32A0130F035E0
:10055800F10D890BAB2A0130F4007408F507F11F7F
:10056800B62AB72AAA2A71087302031DBD2A700881
:100578007202031CC02AC12AC52A7008F202710837
:10058800F33B0130F136F00C890BC62A0130F50235
:10059800031DCF2AD02AB72A76080319D42AD52AC8
:1005A800DA2AF209F309F20A0319F30A7308F100C7
:1005B8007208F0000800FB01FC01760877040319B3
:1005C800E62AE72A162BFD01FD0AF32A0130F63543
:1005D800F70D890BEB2A0130FA007A08FD07F71F9F
:1005E800F62AF72AEA2A0130FB35FC0D890BF82A8E
:1005F80077087902031D022B76087802031C052B65
:10060800062B0B2B7608F8027708F93B7B14013090
:10061800F736F60C890B0C2B0130FD02031D152B48
:10062800162BF72A7C08F7007B08F60008007008EC
:1006380071040319202B212B4A2BF501F50A2D2BC8
:100648000130F035F10D890B252B0130F4007408C9
:10065800F507F11F302B312B242B71087302031D72
:10066800372B70087202031C3A2B3B2B3F2B700868
:10067800F2027108F33B0130F136F00C890B402B84
:100688000130F502031D492B4A2B312B7308F10069
:100698007208F0000800F401F501701C542B552B6A
:1006A800592B7208F4077308F53D0130F235F30D44
:1006B800890B5A2B0130F136F00C890B5F2B70082F
:1006C8007104031D682B692B512B7508F100740800
:1006D800F0000800403479342434303419341234AA
:1006E80002347834003410340134FE0012001E0045
:1006F800FE0B7A2B0034640080010131890B802BBA
:020708000034BB
:020000040001F9
:04000E00E439FF1FB3
:00000001FF
